:0E00000075C0FECFFDCFFCCFFBCFFACFF9CFFE
:10000E00F8CF11C2F6CFF5CFF4CFF3CFF2CFF1CFB9
:10001E00F0CFEFCFEECFEDCF1201100100000008B0
:10002E00C016DF05000101020001090222000101D4
:10003E0000803209040000010300000009210101C3
:10004E000001221600070581030800640403090459
:10005E002C03770065002E006500610073007900A7
:10006E0065006C0065006300740072006F006E0026
:10007E006900630073002E007200750018034800BB
:10008E006900640020006500780061006D0070005A
:10009E006C0065000100010003000400050006006D
:1000AE00070008000600FF0901A101150026FF0048
:1000BE00750895010900B20201C01027E80364001B
:1000CE000A00010000100001100001005A00FF009C
:1000DE0001008701DA0001009301DC000000F894B2
:1000EE00EE27ECBBF1E0FBBFEBBFE5BF8DE0A2E07E
:1000FE00BB27ED938A95E9F780E094E0A0E6ED93B7
:10010E000197E9F7EEEDF0E085919591009761F09A
:10011E00A591B59105901590BF01F00105900D9236
:10012E000197E1F7FB01F0CFEFE5EDBFE4E0EEBFA5
:10013E00C0E6D1E05AC2089522960895AA93A881E6
:10014E00A13008F44DC0E0919401E07841F0E981CE
:10015E00FA81FA93EA93AA81AED1E88341C023973C
:10016E00EB81EA83E0916001F0916101E883F9830C
:10017E00E0919401E074C1F02197E981FA81E49154
:10018E00E883ED81FE813196ED83FE833197A88160
:10019E00A083E981FA813196E983FA832196EA8177
:1001AE00E150EA8349F715C0EC81FD813196EC836D
:1001BE00FD8331970F01A881B981EC91D001EC93A9
:1001CE00E881F9813196E883F983EA81E150EA8387
:1001DE0059F7E881F981E0936001F093610123966C
:1001EE00E8812396089554D2E0918601E3501E2FA4
:1001FE0010300CF4BEC0ACE7B1E0E52DF0E0AE1B64
:10020E00BF0BBA93AA93E12FAE2FAA9341D20B81C3
:10021E001C81A0916201AD3209F08CC02297AC8195
:10022E00A83011F02296A0C0E3ECE0938801EAE535
:10023E00E0938701E0E0E0939401D801E081E0765D
:10024E00E883E03021F0AD81BE81A9D152C0D80142
:10025E00BA93AA931BD210E021E931E0EC81FD8123
:10026E000281D901E0E0EC93EC81FD81E181F0E0C7
:10027E0039C017C0E132A0E0FA0741F419E0EAE410
:10028E00F0E0E0936001F09361010BC0E232A0E078
:10029E00FA0739F416E1E2EBF0E0E0936001F09337
:1002AE00610100939401E12FF8D124961E2F1EC0F8
:1002BE00E830A0E0FA0721F423E631E011E012C0A5
:1002CE00E930A0E0FA0719F4009363010BC0EA309D
:1002DE00A0E0FA0711F411E005C03B9719F4EBE426
:1002EE00E09365012093600130936101E12FD3D13A
:1002FE002696E983A981AF3F59F4D801E081E078D1
:10030E0019F0F801E681E983E0E8E09394010DC06D
:10031E00F801E781E03029F4F801E681A981EA17B6
:10032E0008F003C0F801E681E983E981E0939301C7
:10033E0022961AC0E0919401E078B1F02197EC81F9
:10034E00FD81FA93EA93AD81EFD0E883A881AF3FA8
:10035E0021F4EEE1E093870106C0E881E03019F068
:10036E00E0E0E0939301219698D12596E0E0E093AA
:10037E008601E0918701E07199F1A0919301AF3F61
:10038E0079F186D110919301193008F018E0E091BF
:10039E009301E11BE0939301A0918801E8E8EA271D
:1003AE00E0938801E9E8F1E0FA93EA93A12FC6DE23
:1003BE000E2F093068F4E9E8F1E0FA93EA93A02FE2
:1003CE00BBDE0C5F0C3018F4EFEFE093930104C02A
:1003DE000EE1EFEFE09393010093870109911991DC
:1003EE0004E1013048F02197E0B3E471E883E03096
:1003FE0029F421960150F5CF77244424A02FAA93F7
:10040E00E881E8832196099119910895E5B7E26094
:10041E00E5BFEBB7E064EBBFEBE4E0936501EAE523
:10042E00E09364010895EA931A937894EDE6EDBD96
:10043E00E4E8ECBDE7E0E4BBE6E0E5BB000016B3A4
:10044E0013FD02C0EAE20BC012FD02C0E7E307C0D3
:10045E0011FD02C0E4E303C010FD02C0E1E39E2ED5
:10046E00E5E0E5BB000016B313FD02C0E0E30BC0F0
:10047E0012FD02C0E8E307C011FD02C0E5E303C0B0
:10048E0010FD02C0E2E39E2EE3E0E5BB000016B3D2
:10049E0013FD02C0E3E20BC012FD02C0E9E307C088
:1004AE0011FD02C0E6E303C010FD02C0E3E39E2E81
:1004BE001991E9911895AA93E9D0E0919701AC8131
:1004CE00EA1708F4EC8325E931E0E0919601E0307B
:1004DE0021F490929501EFEF9E2E10E0EC811E1705
:1004EE00A8F4E12FAD81BE81F0E0EA0FFB1F0F01F2
:1004FE00A12FBB27E0919601F0E0EA0FFB1FE20F60
:10050E00F31FE081D001EC931F5FE8CFEC81A09147
:10051E009601EA0FE0939601AC81E0919701EA1BF8
:10052E00E0939701EC8138C0AA93B0D0E091970187
:10053E00E03011F4E1E030C0E0919701AC81EA17B0
:10054E0008F4EC8325E931E010E0EC811E17A0F4ED
:10055E00A12FBB27E0919601F0E0EA0FFB1FE20FFF
:10056E00F31F0F01AD81BE81EE27A10FBE1FEC91CF
:10057E00D001EC931F5FE9CFEC81A0919601EA0FB9
:10058E00E0939601AC81E0919701EA1BE09397010D
:10059E00A0919701E0E075D07ED027960895BA938A
:1005AE00AA9376D00A811B81D801EC91E076E032D5
:1005BE00C1F4F801A181A13041F4E1E0E09397018B
:1005CE00E0E0E0939601EFEF0DC0F801A181A930B4
:1005DE0041F4E1E0E0939701E0E0E0939601EFEF64
:1005EE0001C0E0E05AD02496089510E0E0E0E7BBA9
:1005FE00EFE0E8BBE7E0E4BBE5BBE0E0EFBDE2E047
:10060E00EEBDEEE9EDBDE8E5ECBDE0E0E7BDE6BD33
:10061E00EBBDEABDE9BDE8BDEBB9E8E0EAB9E6E855
:10062E00E0BDE0E0E0BDE3E3E9B9E0E8E8B9E0E031
:10063E00E0BFE4E0E9BFEADE8C9A115021F0A1E0C0
:10064E00B0E015D0FACF8C987894CDDD992011F0CA
:10065E00A92D06D09924AAE0B0E009D0F6CFFFCF9D
:10066E00AA935D9BFECFE881ECB921960895109672
:10067E0039F080ED97E00197F1F7A8951197C9F73A
:10068E000895EA17E1E009F0EE2708953A932A93C8
:10069E001A930A9308953B812A811981088108953E
:00000001FF
